:020000040800F2
:1000000000060020FD310008D1310008D33100087E
:10001000D5310008D7310008D931000800000000B0
:10002000000000000000000000000000DB310008BC
:10003000DD31000800000000DF310008E131000878
:100040003132000835320008393200083D320008EC
:100050004132000845320008493200084D3200089C
:100060005132000855320008593200085D3200084C
:100070006132000865320008693200086D320008FC
:100080007132000875320008793200087D320008AC
:100090008132000885320008893200088D3200085C
:1000A0009132000895320008993200089D3200080C
:1000B000A1320008A5320008A9320008AD320008BC
:1000C000B1320008B5320008B9320008BD3200086C
:1000D000C1320008C5320008C9320008CD3200081C
:1000E000E5310008D1320008D5320008D9320008C5
:1000F000DD320008E1320008E5320008E93200088C
:10010000ED320008F1320008F5320008F93200083B
:10011000FD320008013300080533000809330008E8
:100120000D33000811330008153300081933000897
:100130001D33000821330008253300082933000847
:100140002D330008313300083533000839330008F7
:100150003D330008413300084533000849330008A7
:100160004D33000851330008553300085933000857
:100170005D330008613300086533000800000000AB
:10018000693300086D3300082DE9FC47050065D090
:10019000DFF8A076DFF8AC66BC68F86800F003080A
:1001A0002878C10604F00C0448D524B10C2C08BFF3
:1001B000B8F1010F2CD13868810702D5A869002851
:1001C0004CD0396808074EBF396871680909286A38
:1001D00001F0F001814206D200F0F2FA00283DD190
:1001E00000F0F5F907E000F0F2F924B9286A00F010
:1001F000E7FA002832D100F086FABA6800F079FAFE
:10020000DFF83806006800F035FB010016D0D8E1B1
:10021000A86928B3396841F00101396000F04CFB4E
:1002200081463868810707D400F046FBA0EB09003F
:100230000328F6D30320C4E100F0C9F92878C107E8
:1002400056D5082C04D00C2C08BFB8F1030F18D1D8
:10025000386881034CD56868002849D10120B0E195
:10026000386840084000386000F026FB8146386856
:100270008107E3D500F020FBA0EB09000328F6D3AB
:10028000D8E76868B0F5803F04D1386840F4803022
:10029000386011E0B0F5A02F386806D140F4802016
:1002A0003860396841F4803105E020F480303860EE
:1002B000396821F480213960686860B100F0FCFA87
:1002C00081463868810313D400F0F6FAA0EB0900E8
:1002D0006528F6D3AEE700F0EFFA8146386881036F
:1002E00006D500F0E9FAA0EB09006528F6D3A1E7EE
:1002F0002878810713D5042C04D00C2C08BFB8F142
:10030000020F22D13868410502D5E8680028A5D03F
:100310007868296920F0F85040EA01607860287810
:10032000010743D568690028706830D040F00100AB
:10033000706000F0C1FA80467068810736D400F022
:10034000BBFA00F040F9F7D374E7E86878B1396890
:1003500041F48071396000F0AFFA80463868410599
:10036000D6D400F0A9FA00F02EF9F7D362E7386886
:1003700020F48070386000F09FFA804638684105AC
:10038000CDD500F099FA00F01EF9F7D352E74008F6
:100390004000706000F090FA80467068810705D5D3
:1003A00000F08AFA00F00FF9F7D343E72878410705
:1003B00067D5B86DC1004FF000080AD4B86D40F0A1
:1003C0008050B8654FF00108B86D00F08050009083
:1003D0000098DFF87494D9F80000C10513D4D9F857
:1003E000000040F48070C9F8000000F065FA824611
:1003F000D9F80000C10506D400F05EFAA0EB0A00AF
:100400000328F5D316E7A868012804D1306840F026
:100410000100306010E00528306806D140F004008B
:100420003060316841F0010105E040084000306073
:10043000316821F004013160A86841F2893960B166
:1004400000F03AFA82463068810713D400F034FA9B
:10045000A0EB0A004845F6D3ECE600F02DFA824600
:100460003068810706D500F027FAA0EB0A0048455E
:10047000F6D3DFE6B8F1000F03D0B86D20F080505E
:10048000B865A86A002800F09B80022878D1F86837
:10049000EA6A00F00301914201BF00F070012A6B8B
:1004A000521EB1EB021F1ED16A6B00F4FE41B1EB8C
:1004B000022F18D1A96B07290CBF0021012100F4DC
:1004C00000328A420FD1EA6B520800F4C001521E7A
:1004D000B1EB425F07D1296C490800F0C060491EAA
:1004E000B0EB416F48D00C2C4BD03868410101D49F
:1004F0003868C1003FF5B2AE386820F080703860CF
:1005000000F0DAF904463868810105D500F0D4F925
:10051000001B0328F7D38DE6F868DFF83013EA6A8A
:100520000840296B1043491E40EA0110EA6B696BD1
:10053000520840EA0120296C521E490840EA425004
:10054000491E40EA4160A96B090940EA4140F86050
:10055000386840F080703860F96841F08071F96067
:1005600000F0AAF904463868810129D400F0A4F902
:10057000001B0328F7D35DE63868810120D4E7E744
:100580000C2C3FF46BAE386820F08070386039680E
:1005900011F0205F03D1F86880088000F860F968E6
:1005A000DFF8AC020140F96000F086F904463868D3
:1005B000810105D500F080F9001B0328F7D339E647
:1005C0000020BDE8F687A0EB0800032870473868D4
:1005D00040F0080038603968286A21F0F0010143D2
:1005E00039607968E86921F47F4141EA0021796046
:1005F00070472DE9F0410400884658D0DFF8546276
:10060000306800F00700404509D23168C90848EA5F
:10061000C1013160306800F00700404547D12078C3
:10062000DFF81052C1072AD56068032802D1296873
:100630008A0108E0022802D129688A0303E0002821
:10064000296802D18A0702D431E04A052FD5A9686A
:10065000890840EA8100A86000F02EF90746A868E2
:10066000616800F00C00B0EB810F08D000F024F9B5
:10067000C01B41F289318842F1D3032037E0207852
:10068000810705D5AA68A06822F0F0020243AA609B
:10069000316801F0070188450BD23068C00848EA8C
:1006A000C0003060316801F00701414501D00120F0
:1006B0001DE02078410705D5AA68E06822F4E062D1
:1006C0000243AA602178080706D5A968206921F4A9
:1006D000605141EAC001A96000F015F8AA6800F075
:1006E00008F8BDE8F0415548006800F0C3B8BDE81F
:1006F000F0815949C2F30312895C4F4A01F01F018E
:10070000C8401060704770B54A4A554B9068D6682B
:100710000025002110F00C0006F00306514C03D018
:100720000C2812D1012E1AD115682E0704D4444D7D
:100730002E68C6F3032502E01568C5F303154A4E7B
:1007400056F8255048B9294624E0042808BF214618
:1007500020D008281ED119461CE00C281AD1D068D8
:1007600000F00300022803D0032808BF1D4600E064
:100770002546D168D068D268C0F306204543C1F34E
:100780000210C2F34161401C491CB5FBF0F0490066
:10079000B0FBF1F1084670BD2748304A0068136885
:1007A0003249C3F3022206E023482C4A006813684A
:1007B0002E49C3F3C222895C01F01F01C840704773
:1007C0007CB52B4E054630680024C10002D500F0F0
:1007D00079F80EE0306840F080503060316801F008
:1007E00080510091009800F06DF8316821F080513F
:1007F0003160B0F5007F04D1802D0CD9A12D09D333
:1008000004E0802D88BF032405D801D1022402E032
:10081000702D00D101240F480168C90844EAC101C4
:100820000160006800F00700A04201D0012076BD01
:10083000002076BD001002400C00002004000020C3
:100840009410024090100240007000408C809DF98E
:10085000FFFFEEFE00200240D830000808100240E2
:1008600000127A000024F400E83000082832000862
:100870005810024070B50E4E0446B0680025A0B175
:100880004FF47A710B4AB1FBF0F11068B0FBF1F054
:1008900000F09CF848B9102C07D2002221464FF0F6
:1008A000FF3000F06BF8746000E00125284670BD51
:1008B000000000200C00002001480068704700BFC5
:1008C00000000020DFF87400006800F4C06070478A
:1008D00010B5DFF86810B0F5007F086800F4C0605C
:1008E00019D1B0F5007F1FD00868DFF85420DFF879
:1008F000544020F4C06040F4007000F017F800E0AD
:10090000401E4A69530501D50028F9D148694105BF
:100910000AD5032010BDB0F5806F05D0086820F41B
:10092000C06040F480600860002010BD0860322084
:1009300013684343B3FBF4F0401C70470070004061
:100940000C00002040420F000901020002D4294897
:1009500081547047284B02F00F021A4402F8041C1D
:100960007047264B19684FF6FF020002114000F451
:10097000E0600843224908431860704770B51F4B78
:100980001C68C4F302230124C3F10705052D2EBF03
:100990000F2504FA05F56D1E1E1D072E34BF00231A
:1009A000DB1E2940994004FA03F3BDE870405B1E4A
:1009B0001A401143C8E7010007D4012200F01F01CB
:1009C000104B8A40400943F82020704710B5401E64
:1009D000B0F1807F01D3012010BD0B4C60600F216E
:1009E0004FF0FF30FFF7B0FF0021A160072020602B
:1009F000002010BD00E400E018ED00E00CED00E088
:100A00000000FA0500E100E010E000E038B5040065
:100A100009D004F17005696809B900F01EF800F00A
:100A200021F8012801D1012032BD606A08B100F02F
:100A30002AF800F00AF821F02A01FFE7816000F0AF
:100A40001BF8BDE8324000F03ABA2068416821F452
:100A500090414160206881687047002028702046DE
:100A600000F04FBB242169602068026852085200E0
:100A70000260204600F066B82068016841F001017C
:100A8000016020467047204600F0B6B92DE9FC47CA
:100A9000054605F170048846606820281746994687
:100AA0004DD1B8F1000F14BF002F012048D020789D
:100AB000012844D0012121700020E06021226260E1
:100AC00005F15006FFF7F8FE378082467780A86868
:100AD000B0F5805F04BF286900280EBF4746404636
:100AE00000270021217080460FE018F8012B0285B5
:100AF00008E02868B8F1000FF7D137F8021BC1F3FE
:100B0000080101857088411E718053467088CDF8B8
:100B10000090002807D000228021284600F0FCF930
:100B20000028E6D005E000224021284600F0F4F934
:100B300008B1032004E020206060002000E00220D3
:100B4000BDE8F6872DE9F04104469D482268136808
:100B5000A168034020690B4361690343E0690B43CB
:100B60000343136000265168E06821F440510143BB
:100B700051600025A36991498A421CBF206A034342
:100B80009768904827F430673B4393608E4F8F4BB4
:100B9000BA4221D11B6803F00303032B29D8DFE8F5
:100BA00003F0025F50710127E169B1F5004F4FF684
:100BB000F07840F0D38067B1012F00F0A980022FB8
:100BC00000F0A980042F00F0AB80082F00F0B18066
:100BD000B7E0FFF7E1FDA5E07D4FBA4223D11B68E6
:100BE00013F00C035FD0042B3AD0082B29D00C2B28
:100BF00048D010278A42D7D1390006D0022F09D019
:100C0000042F52D0082F53D0D0E0FFF7C5FD0028A5
:100C100000F0CD80626802EB4201884202D31303E8
:100C2000834248D2C2E06B4FBA420CD11B6813F02A
:100C3000300338D0102B13D0202B02D0302B21D0F2
:100C4000D7E70227D6E7644FBA420BD11B6813F0EF
:100C5000C00328D0402B03D0802BF2D0C02BEEE76E
:100C60000427C7E75D4FBA420ED11B6813F44073E7
:100C700019D0B3F5807FF3D0B3F5007FE1D0B3F5A1
:100C8000407FB6D10827B5E78A42B2D11B6813F47A
:100C9000406308D0B3F5806FE2D0B3F5006FD0D0D9
:100CA000B3F5406FCBE70027A4E7FFF72CFDAEE7D5
:100CB0004FF40040AEE737B1022F0AD0042F0ED018
:100CC000082F16D01BE0FFF767FD00F08FF8794181
:100CD0000AE0434911EB520045EB050104E0FFF740
:100CE00012FD00F083F86941002300F063FA064624
:100CF00006E0530803F50003B3FBF2F600E001251C
:100D0000A6F540703749884250D22268D6604EE03E
:100D1000FFF74AFD06E06068334901EB50010CE043
:100D2000FFF7F1FC61684A0802EB4002B2FBF1F602
:100D300005E06068410801F58031B1FBF0F6B6B21C
:100D400000E00125A6F1100040452FD208EA060177
:100D5000C6F3420001432068C16028E047B1012F7B
:100D600009D0022F0CD0042F08D0082F0ED015E088
:100D7000FFF712FD04E0FFF717FD01E0FFF7C3FCEA
:100D8000616800EB5100B0FBF1F605E060684108D6
:100D900001F50041B1FBF0F6B6B200E00125A6F185
:100DA0001000404502D22168CE6000E001250020FD
:100DB000206660662846BDE8F081000000800040A3
:100DC000F369FFEF0024F40000380140881002406E
:100DD0000044004000480040004C004000500040EB
:100DE000000024F400FD0F000048E8016268010ED5
:100DF000560816EB0020704790F82410CA0706D555
:100E000002685368816A23F400330B43536090F8FF
:100E100024108A0706D502685368C16A23F4803318
:100E20000B43536090F824104A0706D502685368B4
:100E3000016B23F480230B43536090F824100A07BE
:100E400006D502685368416B23F400430B4353609B
:100E500090F82410CA0606D502689368816B23F4C3
:100E600080530B43936090F824108A0606D50268DD
:100E70009368C16B23F400530B43936090F82410E4
:100E80004A0610D502685368016C23F480130B43A3
:100E90005360036CB3F5801F05D15368416C23F494
:100EA000C0030B43536090F824100A0606D501686E
:100EB0004A68806C22F4002202434A607047F8B509
:100EC000044604F170050020E8606FF07E47FFF7EC
:100ED000F3FC0646206801680A0708D500973346E8
:100EE00000224FF40011204600F016F860B9206887
:100EF00001684A070AD50097334600224FF4800163
:100F0000204600F009F808B10320F2BD20206860F7
:100F1000A86000202870F2BD2DE9F041069C05462E
:100F20000E4690461F462868C1693140B1420CBF49
:100F300001200020404529D114F1010FF3D0FFF723
:100F4000BBFCC01B844200D35CB92868016821F453
:100F5000D071016000F01CF8002101700320BDE891
:100F6000F081286801684A07DDD5C1690A05DAD52C
:100F70004FF4006101622868026822F4D0720260B6
:100F8000002200F005F8C1600270E7E70020E6E704
:100F90002868816849084900816005F170002021B6
:100FA00041608160704730B4002513E050F8042B95
:100FB000D30744BFA9F101039A18091F042942F875
:100FC000045BFAD213468C0744BF15809B1CC907EB
:100FD00048BF1D7050F8041B0029E7D130BC704792
:100FE0006B4881B0816841F001018160816801F046
:100FF000010100910099026842F08052026000688D
:1010000000F080500090009801B0704781B00068F7
:101010006049884209D16048026842F48052026007
:10102000006800F480500090009801B0704710B53F
:1010300086B004461422002101A800F03EF9216880
:101040005648814220D1564C216841F0020121606E
:10105000C021206800F00200009012220098514840
:10106000019102920121039103220421059104922E
:1010700001A900F043F9E06840F40010E060E06886
:1010800000F400100090009806B010BD10B5FFE706
:1010900086B000F06BF82168434881422FD1404868
:1010A000416941F480514161416901F480510591E8
:1010B0000599026842F001020260E021006800F038
:1010C00001000590022205980091019200210291F1
:1010D0000392052104914FF09040694600F00EF90B
:1010E000102100910122019200210291022200F0C0
:1010F00037F8012210214FF0904000F0E3F906B0DC
:1011000010BD10B586B000F031F82068274A244998
:1011100090420BD1486940F480404861486900F42E
:10112000804000F029F84FF4C0610CE0204A904262
:1011300014D1C86840F40030C860C86800F40030BA
:1011400000F01AF80C21059800910222002102916A
:10115000019207210322049100F002F806B010BDAD
:10116000039269464FF0904000F0C8B8044614223C
:101170000021684600F0A1B8059005980A6842F081
:1011800001020A60096801F0010105917047000041
:101190005810024000300240481002400054004005
:1011A0004C1002400004004800300140003801406B
:1011B00000440040D3BBD9B1B2F5803F5BD2022AD4
:1011C0001ED98C46B1FBF2F102FB11C31B0443EAAA
:1011D0001043B3FBF2FC02FB1C3380B240EA034332
:1011E000B3FBF2F002FB103240EA0C4000237047E0
:1011F000022A05D98446B0FBF2F002FB10C2704708
:101200004AB105D100F0010249085FEA3000704799
:1012100000220023704700F077B90B000200002184
:1012200000207047F7D3002200237047904271EBF3
:10123000030CF2D370B5B1FA81F4B3FA83F52C1B29
:10124000A340C4F1200532FA05F63343A2405FF013
:101250000046E64002E05B085FEA3202841A71EB66
:10126000030524BF204629467641F4D302000B0033
:101270003000002170BD70B5B1FA81F4B2FA82F588
:10128000C4F120046419B4F12006DAD3B2405FF04F
:101290000044F440002502E052085FEA3303C61A16
:1012A00071EB020E24BF3046714664416D41F3D3A9
:1012B00002000B002000290070BD10B50446104646
:1012C0000A460146204600F021F9204610BD30B400
:1012D0000EE00268436802440830DC0744BFA9F10D
:1012E0000104E31852F8045B43F8045B091FF9D1C9
:1012F00050F8041B0029ECD130BC70472DE9F84FA1
:101300004FF00009764A774B4FF00F0805460E461E
:1013100034E0754CA54214BF072406248C40734961
:101320003C4341F82C40C143146801EA040C746842
:10133000E40348BF40EA0C0CC2F800C0546801EA5C
:10134000040C7468A40348BF40EA0C0CC2F804C043
:10135000946801EA040C7468E40248BF40EA0C0C8B
:10136000C2F808C0D46801EA040C7168890248BF59
:1013700040EA0C0CC2F80CC009F10109316831FADD
:1013800009F000F09780012404FA09F414EA01003E
:10139000F2D04FEA490C032101FA0CF16FEA010E79
:1013A0007168E443012918BF022903D0112918BF2D
:1013B000122910D1A968F7680EEA010107FA0CF7A3
:1013C0003943A96069687768C7F30017214007FAB5
:1013D00009F739436960716801F00307032F07D1EA
:1013E000EF6AC1F3C0013C4001FA09F10C43EC6221
:1013F000E968B4680EEA010104FA0CF42143E960DB
:101400004FEA89017468022C18BF122C12D14FEADE
:10141000D90405EB840401F01C07D4F820A008FAD5
:1014200007FB2AEA0B0AD6F810B00BFA07F747EACF
:101430000A0727622C680EEA0407347904F00304D3
:1014400004FA0CF43C432C607468E40094D51C68E6
:1014500044F001041C604FEA990C1C6804F001047C
:10146000009401F00C01009C204C54F82C4008FA28
:1014700001F724EA0707B5F1904F08BF002418D000
:101480001B4CA54208BF012413D01A4CA54208BF2B
:1014900002240ED0184CA54208BF032409D0174CD3
:1014A000A54208BF042404D0154CA5427FF431AFF7
:1014B000052433E7BDE8F18F0069084018BF01201B
:1014C000C0B270470AB181617047816270470D4AAE
:1014D000136803421CBF106000F056B9704700004B
:1014E000000401406010024000180048080001405C
:1014F0000004004800080048000C004800100048A4
:1015000000140048140401407047000062F30F22E9
:1015100062F31F42401810F0030308D0C91A1FD30A
:10152000DB0748BF00F8012D28BF20F8022D13006B
:1015300030B414461546103928BF20E93C00FAD8CB
:10154000490728BF20E90C0048BF40F8042D890056
:1015500028BF20F8022D48BF00F8012D30BC70478D
:10156000C91818BF00F8012DCB0728BF00F8012DBE
:101570007047000038B586B000F0A4F900F044F9D7
:101580001422002101A8FFF798FE9448944C0168AA
:1015900041F00401016004F59075026802F0040254
:1015A00000920099026842F080020260036803F032
:1015B000800300930099026842F001020260036810
:1015C00003F0010300930099026842F002020260F6
:1015D0004FF400510068834A00F002000090009828
:1015E0008148019102920021039101A9FFF786FE33
:1015F000002200212820FFF7C1F92820FFF7DBF99E
:101600007A487B49286000220120E8606960AA606E
:101610002A616A61AA61EA612A62284600F062F9D9
:101620000021284600F01EFB0021284600F02FFB79
:101630004FF4827121644FF4E0616E48E063A1646D
:1016400000206064E06420652021A1654FF40070F3
:1016500060650721A1660020E06520666066E0669F
:101660000821216704F13C0000F03CFB624863491B
:10167000016000220C214FF4E13500F07BF8456059
:10168000FFF7C4F904F1A0005D49016000220C21BC
:10169000456000F06FF8FFF7B9F95A487FA5A060E0
:1016A000012141F221002061217301200821607392
:1016B000616120204FF6FF71E061A161012080216E
:1016C000A062216204F1080000F050FD6FA000F05C
:1016D00078F800F0FEFD00F02FFE0421012000F05C
:1016E00061FE00BF6BA000F050FE4FF4FA6000F006
:1016F00061FE00F0EAFD0028FBD1012000F0E3FDCF
:101700000028F6D1204600F0E2FD8028F1D100202B
:10171000E07104F12C01204600F09EFE48B921182A
:10172000221891F82C10401C3031102882F82C100F
:10173000F5DB00F035FE642000F03CFE05210120C1
:1017400000F030FE284600F020FE0021022000F0CC
:1017500029FE04F12C0000F018FE04F12C0000F02A
:1017600030F8204600F0B3FD8728C2D0322000F0C8
:1017700021FEF6E78260C260026141618261C2615E
:10178000026242627047000080B54FF40051164873
:10179000FFF792FE012808D142A000F012F800F0F5
:1017A000FFFD4FF4FA7000F005FE0521022000F065
:1017B000F9FD00BF0FF2F80000F0E7FDBDE80240C0
:1017C0003DA010B5044600F0BBFE2146BDE8104028
:1017D00082B24FF47A730848FFF758B94C100240B0
:1017E00010000020000011100008004800540040C4
:1017F000EC9C9010003001407C010020003801403A
:10180000004400400030024080B5B8B044220021BE
:1018100005A8FFF752FD142200216846FFF74DFD91
:101820008822002116A8FFF748FD02214FF480729C
:10183000059108921021022209910F9210920A211B
:1018400001221192129107220221139214911591F3
:1018500005A8FEF799FC0F200321009001910022BA
:1018600002920392049204216846FEF7C2FE4321CD
:1018700000221691249225922A9216A800F06AFE60
:101880004FF40070FFF724F839B000BD5265616471
:101890007900000057656C636F6D6500436F6E657E
:1018A0006B000000204E475559454E2000000000B7
:1018B000667366617300000074686F6174206F6BFB
:1018C00000000000032010B5FFF74BF80020FEF7E2
:1018D000D1FF0024002814BF0124FFF781FB20461C
:1018E00010BD000038B5040001D1012032BD04F163
:1018F0004005687820B9002129702046FFF797FB42
:1019000000F040F86068216820F07060086120688D
:10191000816821F400418160E06821680128A068A5
:101920000CBF40F4004040F404408860E0680228A6
:1019300003D120684FF4006141602068416841F0A4
:10194000007141F4004141602068C16821F4004108
:10195000C16060692169A2690143206841EA0221EE
:10196000C160206AE1692268014311602068016852
:1019700041F001010160002068602021697020634E
:10198000A87032BD242068702068016849084900A9
:10199000016070472DE9F84300F05CF83DD12178F3
:1019A00001293AD001202070FEF786FF00F048F8A8
:1019B00000282DD1212000F056F8DFF82001B1F5E4
:1019C000807F28BF358506D2728D328500F033F8CE
:1019D00003E03585002000F029F800F07BF800F0E6
:1019E0001FF812D000F0ADF890B900F04CF8F6D026
:1019F00089B20029F3D100F056F848B900F03FF859
:101A0000E7D2728D32850020E0E700F0C2F808B11D
:101A1000012003E000F04FF800E00220BDE8F2836F
:101A2000708D00284A4639463046704700904FF086
:101A30008073FF22704700904FF00073D2B270475E
:101A40008146CDF80090192301224FF40041304621
:101A500000F056B8064606F1400488466078202813
:101A600015461F46704760701021A170002060600D
:101A7000756277857063FF25089F718D7047708D43
:101A8000B0F5807F7047706A326801789162706A41
:101A9000411C7162708D411E7185308D411E3185F2
:101AA000708D00287047CDF800903B4600228021C1
:101AB000304600F025B831682020C8613168DFF871
:101AC00020004A6802404A60202161700020A07016
:101AD000207070474146304600F0ADB800200080CD
:101AE00000E800FE006881698A0744BF0021816226
:101AF0008169CA0703D4816941F00101816170479E
:101B00002DE9F041069F05460E4690461C46286882
:101B100081693140B1420CBF0120002040450DD108
:101B200014F1010FF3D0FEF7C7FEC01B844201D3AE
:101B3000002CECD100F021F8012000E00020BDE8ED
:101B4000F08170B505460C461646286881698807FD
:101B500011D400F036F808B1012070BD14F1010F66
:101B6000F3D0FEF7A9FE801B844201D3002CECD1F8
:101B700000F003F8F0E7002070BD05F140002022DE
:101B8000416841F020014160427000218170017084
:101B9000704770B505460C46164628688169880668
:101BA0000DD400F00EF840B9FEF786FE801B84428B
:101BB00001D3002CF1D1FFF7E0FF012070BD002020
:101BC00070BD324621462846FFE770B505460C46F3
:101BD00028688169C80616462BD5286881698A0657
:101BE0000FD414F1010FF8D0FEF766FE801B84427B
:101BF00001D3002CF1D105F14000416841F02001F2
:101C000011E01021C16120202A68D0612846FFF729
:101C100069FF2868114A41681140416005F14000A0
:101C2000416841F0040141602022FFF7ADFF01202F
:101C300070BD002070BD70B50068049C4568084EFA
:101C400046EA5456B543C1F30901294341EA02412A
:101C500019432143416070BD0000000000E800FE10
:101C6000FF63FF0330B500F140025378202B0CD105
:101C70001478012C09D000F01DF824F480541C6065
:101C800003681D682943196020E0022030BD30B58B
:101C900000F140025378202B0AD11478012C07D090
:101CA00000F008F824F4706444EA01241C600DE09C
:101CB000022030BD012313702424547003681D6872
:101CC0006D086D001D6003681C687047006801683E
:101CD00041F00101016020205070002111700020AE
:101CE00030BD000070B5040001D1012070BD00209E
:101CF000A06204F15C05687820B9002129702046B3
:101D0000FFF7C4F90220687000F03DF8E168B1F512
:101D1000E06F04D90022B1F5706F03D104E04FF4F5
:101D2000805201D00020A062206B30B9B1F5E06F85
:101D300087BF02202063012121636368A0682169B5
:101D40002668034360690B43A169034301F40071F2
:101D5000E0690B43216A0343A06A0B4303433360EA
:101D6000A369606A616B1B0C03F004030343E06822
:101D70000B4303431A4323685A6000216960012022
:101D80006870002070BD2068016821F0400101608A
:101D9000704722647888411E798070472DE9F047AA
:101DA000054605F144070C46387E012891464FF060
:101DB00001084FF0000A08BF022000F0EC801E4628
:101DC00087F81880FEF778FD7B7E012B0AD06968C2
:101DD000B1F5827F02BFA9680029042B02D04FF021
:101DE000020AD3E0002C18BFB9F1000F00D00EB9E1
:101DF000C246CBE07B7E042B1CBF05217976C7F859
:101E00001CA0C5F840907E803E80AC63EE87AE8714
:101E1000C7F808A0C7F80CA040F20173E96899421E
:101E200038BF022E04D329684C6824F4805403E0A0
:101E300029684C6844F480544C6029680C68620638
:101E400003D40C6844F040040C60EA686968089C9C
:101E50009A4237D3002918BF012E00F0ABF8814613
:101E6000E88F002804BF7888002836D02968886861
:101E700082070BD5E88F002818BFB8F1000F05D0F6
:101E8000A86B0288CA60D04600F08DF8296888687F
:101E9000C2070BD5788848B1C868296C08804FF014
:101EA0000108286C821C2A64FFF774FFFEF704FD0A
:101EB000A0EB0900A042D3D314F1010FD0D04FF012
:101EC000030A63E0002918BF012E00F07FF8814665
:101ED000E88F002804BF788800284DD029688868DA
:101EE000820718D5E88F002818BFB8F1000F12D06C
:101EF000A86BEA8F022A08D30088C860A96B881CE7
:101F0000A863E98F881EE88704E002780A7300F06E
:101F100044F8E987D04629688868C2071FD57888C1
:101F2000E8B1286C7A88022A10D3C9680180286C2D
:101F3000821C2A647888811E7980788802280CD2D5
:101F40002868416841F48051416006E0097B0170D6
:101F5000286C421C2A64FFF71DFF4FF00108FEF7B2
:101F6000ABFCA0EB0900A04203D314F1010FAFD0EA
:101F7000A5E7002CACD1A2E728464A46214600F04E
:101F8000D1F818B120204FF0010AF86101217976CB
:101F9000002038765046BDE8F087A86B411CA96345
:101FA000E88F411E7047A86B811CA963E88F411E12
:101FB000E987704709D1A96B2B680A88DA60A96B99
:101FC0008A1CAA63E98F4A1EEA87704715D1A96B5C
:101FD0002A68EB8F022B08D30988D160AA6B911C69
:101FE000A963EA8F911EE98770470B781373A96B79
:101FF0004A1CAA63E98F4A1EEA8770472DE9F0411F
:10200000069F05460E4690461C462868816831406A
:10201000B1420CBF0120002040452FD014F1010F28
:10202000F3D0FEF749FCC01BA04201D2002CECD13A
:102030002868416821F0E00141606868B0F5827F5E
:1020400009D1A868B0F5004F18BFB0F5806F02D174
:102050002868FFF799FEA86AB0F5005F09D12868E3
:10206000016821F4005101602868026842F40052BE
:10207000026005F15C0000F049F800E00020BDE8D6
:10208000F0812DE9F041069F0646884615461C461C
:102090003068816808EA0101A94234D0B8F5C06F00
:1020A00004BF002D007B14F1010FF1D0FEF704FCFA
:1020B000C01BA04201D2002CEAD13068416821F057
:1020C000E00141607068B0F5827F09D1B068B0F579
:1020D000004F18BFB0F5806F02D13068FFF754FE93
:1020E000B06AB0F5005F09D13068016821F4005191
:1020F00001603068026842F40052026006F15C0040
:1021000000F004F800E00020BDE8F08101214170FA
:10211000002202700320704700962B460022802187
:1021200020466BE77CB50D461646044600962B46C6
:1021300000224FF4C051FFF7A4FF38B9FFF7ECFFBE
:1021400020B900962B4600F00CF808B100F001F819
:1021500076BD206E40F0200020660320704700907E
:10216000642300224FF4C06120468AE710B50400C2
:1021700020D0607F20B9002121772046FEF746FF5E
:1021800002216177207970B9206816494161206881
:10219000816821F018018160607968B920684FF08A
:1021A000FF3101610BE0E268A168204600F074FC99
:1021B0000028F1D0012010BD216820690861216844
:1021C0008A68606922F0600202438A6021688A6836
:1021D000A06922F0800202438A6001216177002019
:1021E00010BD0000B71DC10438B50223044600200D
:1021F000637723689D6845F001059D60236A012B84
:1022000010D012D3032B08D03CBF204600F044F876
:102210000BE051F820501D60401C23689042F8D319
:10222000186802E0204600F003F80121617732BD12
:1022300070B500230CE066782578360446EA05661A
:10224000A578E47846EA0526056826432E605B1CDF
:10225000B3EB920F01EB8304EDD312F0030218D01D
:10226000012A03D102682178117012E0022A06D1F6
:102270002178627842EA012201680A8009E0032A93
:1022800007D101682278637843EA02230B80A278A1
:102290000A700068006870BDF0B5002308E001EB2B
:1022A000830631F82350778847EA054727605B1C8F
:1022B0000468B3EB520FF2D3D00744BF31F82310B8
:1022C00021802068F0BD00F0CFBC00F0ACBC00F075
:1022D00047BD00F071BD0000E0B500F0F002000164
:1022E00042F00C0342F008028DF805208DF804300E
:1022F00040F00C0240F008000FE0E0B500F0F00202
:10230000000142F00D0342F009028DF805208DF81E
:10231000043040F00D0240F009008DF807008DF800
:10232000062064200090042301AA4E210148FFF7F3
:1023300031FB07BD3001002080B53320FFF7CCFF13
:102340003220FFF7C9FF00F01DF82820FFF7C4FF77
:1023500000F018F80120FFF7BFFF00F013F8062087
:10236000FFF7BAFF00F00EF80C20FFF7B5FF00F002
:1023700009F80220FFF7B0FF00F004F8BDE80240C2
:102380008020A9E7322000F015B810B5044603E01C
:1023900014F8010BFFF7B1FF20780028F8D110BD29
:1023A000012099E701280EBF8039403141F08001BA
:1023B000C8B291E738B50446FEF77EFA14F1010F72
:1023C000054602D0044988680419FEF775FA401BD7
:1023D000A042FAD331BD00BF00000020F0B542F2A8
:1023E0001073984236D2C0F30325030BC0F30312D7
:1023F000EC181419062600F00F0016FB0400C0B2FA
:102400000A2790FBF7F403EBC3073F1905EB85069A
:102410003744D219D2B20A2692FBF6F606EB4505EE
:10242000EDB20A2795FBF7F707EB83034FF00A0C91
:10243000DBB2E64693FBFEFE0CFB1E330CFB1400E6
:102440000B700CFB1755C8704D700CFB16228A7070
:102450000020F0BD0120F0BD2DE9FF418379232B41
:102460000C4660DAC17900295DD10278417802EB2F
:10247000012500958178C27801EB022601964FF480
:10248000E45701794079DDF804E0039301EB002281
:1024900002924FF42472029E0099774312FB03725A
:1024A0004FF4AD5000FB0E2242F210705118B1FBF8
:1024B000F0F8084642F21077009107FB18000090F0
:1024C00041F6F75212FB038842F2185101FB0688CD
:1024D00041F28D21062000FB0E8E2A20CDF804E06B
:1024E0003A46BEFBF2F207FB12EE11FB032200FBA1
:1024F0000626029640F21910B6FBF7F110FB031303
:1025000007FB1166039339460296B3FBF1F107FB13
:102510001133CDF804E00393032600F008F8761E8B
:10252000FBD5002000E0012004B0BDE8F081B1003F
:102530005DF8260004F10C024942114480B24DE7D7
:1025400000F1010310F8011B11B110F8011BFBE7AA
:10255000C01A70472DE9FC47064600243068DFF8B2
:1025600014740105A04621D5706E70B1B0F5800FCE
:1025700017D0B0F5000F03D0B0F5400F09D013E02D
:102580003A6842F480323A6004E0002100F07CF9BD
:10259000044654B9F96F706E21F440010143F967A4
:1025A00004E000F06BF9F3E70124A0463068C104B1
:1025B00021D5B06EA8B1B0F1807F17D0B0F1007F07
:1025C00003D0B0F1407F04D013E0396841F480318A
:1025D00039607CB9F96FB06E21F040710143F96741
:1025E00009E0002100F050F90446F2E700F046F956
:1025F000FAE70124A046306881032BD5F86CC100AE
:102600004FF000090AD4F86C40F08050F8644FF0A5
:102610000109F86C00F0805000900098DFF8285411
:10262000286840F480702860FEF746F982462868E2
:10263000C10500F18280FEF73FF9A0EB0A000328F4
:10264000F5D30324A046B9F1000F03D0F86C20F0B5
:102650008050F8643078C10705D5FA6FB06B9208E6
:1026600040EA8202FA673178880705D5F96FF06B86
:1026700021F00C010143F9673178480705D5F96F5E
:10268000306C21F030010143F9673178080705D536
:10269000F96F706C21F0C0010143F9673178C80609
:1026A00005D5F96FB06C21F440710143F9673178B9
:1026B000880605D5F96FF06C21F440610143F96794
:1026C0003168880505D5F96FF06D21F4402101438B
:1026D000F9673168480505D5F96F306E21F440116E
:1026E0000143F9673178480605D5F96F306D21F45B
:1026F00040510143F9673178080605D5F96F706DCF
:1027000021F440410143F9673168C80505D5F96FE7
:10271000B06D21F440310143F9673168880446D532
:10272000F96FF06E21F040610143F967F06EB0F18E
:10273000006F34D100F09DF839E0002C82D1DFF831
:102740004443206810F440701CBFD6F884108842BF
:102750000BD02068216841F48031216020F4407062
:10276000226822F4803222602060C0070FD5FEF775
:10277000A3F805462068810709D4FEF79DF8401BA1
:1027800041F289318842F5D34FF003085BE72168B5
:10279000D6F8840021F440710143216053E7B0F181
:1027A000806F04D100F06FF8010018BF80463068D8
:1027B000010314D5FA6F306F22F040620243FA67CA
:1027C000306FB0F1006F02D100F053F807E0B0F1C4
:1027D000806F04D100F057F8010018BF80463068C0
:1027E000410314D5FA6F706F22F040620243FA671A
:1027F000706FB0F1006F02D100F03BF807E0B0F16C
:10280000806F04D100F03FF8010018BF80463068A7
:10281000410418D5FA6FB06F22F040520243FA67B4
:10282000B06FB0F1805F03D1022100F02DF807E016
:10283000B0F1005F07D1022106F1200000F09CF802
:10284000010018BF80463068010405D5FA6FF06FAB
:1028500022F080420243FA673168C80306D5F96F57
:10286000D6F8800021F000410143F9674046BDE8F9
:10287000F687386840F4801038607047002106F110
:10288000200000F079B80121301DFFE72DE9F0416B
:1028900005467D4F28680C46F968002611F0030FA5
:1028A0000DD0F96801F00301814231D180B3F8689D
:1028B0006968C0F30210401C88420ED028E001284D
:1028C00004D025D303281DD018D321E03A689107FE
:1028D0001ED5FA68696800F0C9F8386820F0806091
:1028E00000F0CCF880463868010113D5FDF7E4FF0D
:1028F000A0EB08000328F6D3032637E039684A0521
:10290000E7D405E039688A03E3D439684A03E0D4A0
:1029100001262BE0A9682CB93A695C48EB6800F005
:1029200095F80FE0012C3A6909D12B69584802400B
:102930005B0842EA01215B1E41EA435102E06B69F8
:1029400000F08BF83961386840F0806000F096F84C
:1029500004463868010105D4FDF7AEFF001B0328CB
:10296000F7D3C9E73869A969084338613046BDE83B
:10297000F08100000C1002402DE9F0410646424F64
:1029800030680C46F968002511F0030F0DD0F96886
:1029900001F00301814231D180B3F8687168C0F35E
:1029A0000210401C88420ED028E0012804D025D314
:1029B00003281DD018D321E03A6891071ED5FA6884
:1029C000716800F053F8386820F0805000F056F835
:1029D00080463868810013D5FDF76EFFA0EB080034
:1029E0000328F6D303252BE039684A05E7D405E030
:1029F00039688A03E3D439684A03E0D401251FE02B
:102A0000B1687A69002C04D12048F36800F01EF800
:102A100002E0336900F021F87961386840F08050B5
:102A200000F02CF804463868810005D4FDF744FF17
:102A3000001B0328F7D3D5E77869716908437861EB
:102A40002846BDE8F081000000700040024042EAE4
:102A500001211B0941EA434170470E4802405B08CF
:102A600042EA01215B1E41EA4361704722F0730292
:102A70001043491E40EA0110F86070473860FDF7C6
:102A80001BBF00009010024000100240FF80FDFFBD
:102A9000FF809FFFFF80FFF9F0B5044600201F254F
:102AA0002B465D1E2BB105F01F0321FA03F6F70735
:102AB000F6D5130007D0082A10D0102A0BD0182AF8
:102AC0000ED1072D0CD223685961996821F01801A5
:102AD0000A439A60F0BD082DF5D301E0102DF2D322
:102AE0000120F0BDF8B586B004460D4601A80021CE
:102AF000017002A80F2100F09FF900F052F8322077
:102B000000900123DFF8A46202AA01A93046FFF772
:102B100045F907463220009005F00F0302AA21462E
:102B20003046FFF73BF90446012200F03BF80F2046
:102B3000FFF740FC44EA070007B0F0BDFEB50FF216
:102B4000DC20DFF8686200788DF8050001A900201C
:102B5000087000F026F80024002510E032200090D4
:102B6000012301AA0DF105013046FFF717F90443CF
:102B70009DF8040000F008006D1C8DF80400EFB211
:102B80009DF80400082801D0FE2FE7DB012200F0A9
:102B900009F80F20FFF70EFCFE2FA8BF0124E0B2BA
:102BA000FEBD002210214FF09040FEF78BBC70B5A7
:102BB0000FF26C22DFF8F451127886B004468DF8DB
:102BC00004200F2102A800F037F9FFF7EAFF00F018
:102BD00024F800F01FF80646322000900223224617
:102BE00000F017F806432078802809D163783BB1BC
:102BF0003220009003F00F03A21C00F00AF80643F5
:102C00000122FFF7CFFF0F20FFF7D4FB304606B0BD
:102C100070BD02A92846FFF7C1B8322000900123F9
:102C200002AA01A9704718B50FF2F812127889B0FC
:102C30001E218DF8002001A800F0FEF80121684651
:102C4000FFF750FF012458B9FFF778FF40B901A8FA
:102C5000FFF7ADFF002802BF9DF8040055280024AF
:102C600020460AB010BD000078B50128C1B0504917
:102C700002D0022805D027E06BA52E68009601A897
:102C800006E000BF69A21368009301A801F58071F6
:102C90004FF4807200F0D4F804216846FFF722FF59
:102CA000012478B9FFF74AFF60B901A8FFF77FFF59
:102CB000002804BF9DF80400002803D19DF80500FA
:102CC00000B90024204600E0012042B070BDF8B5F4
:102CD00088B006460F46154600F03DF839463046A6
:102CE000FFF700FF8E2498BBFFF728FF80BB6846E4
:102CF000FFF75DFF60BB9DF800002870802826D19B
:102D00009DF80100032823DDC21E6A700DF1020147
:102D1000D2B2A81C00F094F869780DF10200405C72
:102D200005F1FC0108706B786B44DA784A706E78B4
:102D30006E4433798B7000EB02266978A81C00F092
:102D400029F836B200B2864202D12C7800E004465F
:102D5000204609B0F0BD1E21684600F06DB80000A5
:102D600070B500BF32A3C2B00446D3E9005668462E
:102D700002AAC0E900560521FFF7A9FF9DF8092026
:102D800002A90A44911F0A6822604A68626042B040
:102D900070BD000080B50A4601460648FFF724FAD8
:102DA00080F47F4080F0FF0080B202BD4C00002024
:102DB0008C2E00081800002000B585B01421FFF704
:102DC000CBFF00224FF48071FFF7EDFE4FF48071CE
:102DD00000910122002102910391019269464FF076
:102DE0009040FEF78BFA01224FF48071FFF7DBFE73
:102DF0009620FFF7DFFA00224FF48071FFF7D3FE31
:102E00006420FFF7D7FA01224FF48071FFF7CBFE61
:102E10000A20FFF7CFFA05B000BD00000300000054
:102E200002000000550000000202010D0202020033
:102E30000403260100000000002200F00DB800008D
:102E40004AB1000011F8013B521E00F8013B1CBFC3
:102E500011F8013BF8E7704700B500BF1300964634
:102E60009446103928BFA0E80C50FAD85FEA417C9C
:102E700028BF0CC048BF40F8042BC90728BF20F862
:102E8000022B48BF00F8012B00BD0000FFFF00002F
:102E90000000000000000000000000000000000032
:102EA0000000000000000000000000000000000022
:102EB0000000000000000000000000000000000012
:102EC0000000000000000000000000000000000002
:102ED00000000000000000000000000000000000F2
:102EE00000000000000000000000000000000000E2
:102EF00000000000000000000000000000000000D2
:102F000000000000000000000000000000000000C1
:102F100000000000000000000000000000000000B1
:102F200000000000000000000000000000000000A1
:102F30000000000000000000000000000000000091
:102F40000000000000000000000000000000000081
:102F50000000000000000000000000000000000071
:102F60000000000000000000000000000000000061
:102F70000000000000000000000000000000000051
:102F8000000000000000000000000000FFFF000043
:102F90000000000000000000000000000000000031
:102FA0000000000000000000000000000000000021
:102FB0000000000000000000000000000000000011
:102FC0000000000000000000000000000000000001
:102FD00000000000000000000000000000000000F1
:102FE00000000000000000000000000000000000E1
:102FF00000000000000000000000000000000000D1
:1030000000000000000000000000000000000000C0
:1030100000000000000000000000000000000000B0
:1030200000000000000000000000000000000000A0
:103030000000000000000000000000000000000090
:103040000000000000000000000000000000000080
:103050000000000000000000000000000000000070
:103060000000000000000000000000000000000060
:103070000000000000000000000000000000000050
:103080000000000000000000000000000E48016881
:1030900041F47001016000220C49086840F0010011
:1030A00008608A604FF480520B68094803400B6047
:1030B000CA6000200B68074A23F480230B608861F4
:1030C0004FF000611160704788ED00E00010024091
:1030D000FFFFF6EA08ED00E000000000000000003D
:1030E0000102030406070809A0860100400D030041
:1030F000801A060000350C0040420F0080841E003C
:1031000000093D0000127A000024F40000366E0130
:103110000048E801006CDC0210B507497944183119
:10312000064C7C44163404E00A68081D11448847A4
:103130000146A142F8D110BD2C0000004C00000057
:103140004EF68851CEF20001086840F47000086025
:10315000BFF34F8FBFF36F8F4FF00070E1EE100A97
:103160007047000043DEFFFFEC010000100000206C
:10317000000000005BE1FFFF100000009000000075
:10318000000000200000000000F00DF8002801D031
:10319000FFF7C2FFAFF300800020AFF30080FEF71F
:1031A000E9F900F002F80120704700F001B80000D2
:1031B0000746384600F002F8FBE7000080B5AFF3A1
:1031C0000080024A11001820ABBEFBE72600020077
:1031D0007047FEE7FEE7FEE7FEE77047704770477F
:1031E00000F004B84FF40050FEF771B902490A68C4
:1031F000886882180A6070470000002001488047F4
:10320000014800478D3000081D3200080000000012
:10321000100000000100000000093D00AFF3008035
:10322000FFF78EFFFFF7B0FF00000000010203046C
:10323000FFF7FEBFFFF7FEBFFFF7FEBFFFF7FEBFC2
:10324000FFF7FEBFFFF7FEBFFFF7FEBFFFF7FEBFB2
:10325000FFF7FEBFFFF7FEBFFFF7FEBFFFF7FEBFA2
:10326000FFF7FEBFFFF7FEBFFFF7FEBFFFF7FEBF92
:10327000FFF7FEBFFFF7FEBFFFF7FEBFFFF7FEBF82
:10328000FFF7FEBFFFF7FEBFFFF7FEBFFFF7FEBF72
:10329000FFF7FEBFFFF7FEBFFFF7FEBFFFF7FEBF62
:1032A000FFF7FEBFFFF7FEBFFFF7FEBFFFF7FEBF52
:1032B000FFF7FEBFFFF7FEBFFFF7FEBFFFF7FEBF42
:1032C000FFF7FEBFFFF7FEBFFFF7FEBFFFF7FEBF32
:1032D000FFF7FEBFFFF7FEBFFFF7FEBFFFF7FEBF22
:1032E000FFF7FEBFFFF7FEBFFFF7FEBFFFF7FEBF12
:1032F000FFF7FEBFFFF7FEBFFFF7FEBFFFF7FEBF02
:10330000FFF7FEBFFFF7FEBFFFF7FEBFFFF7FEBFF1
:10331000FFF7FEBFFFF7FEBFFFF7FEBFFFF7FEBFE1
:10332000FFF7FEBFFFF7FEBFFFF7FEBFFFF7FEBFD1
:10333000FFF7FEBFFFF7FEBFFFF7FEBFFFF7FEBFC1
:10334000FFF7FEBFFFF7FEBFFFF7FEBFFFF7FEBFB1
:10335000FFF7FEBFFFF7FEBFFFF7FEBFFFF7FEBFA1
:10336000FFF7FEBFFFF7FEBFFFF7FEBFFFF7FEBF91
:040000050800321DA0
:00000001FF
